{
  "contractName": "Carpool",
  "abi": [
    {
      "inputs": [],
      "stateMutability": "nonpayable",
      "type": "constructor"
    },
    {
      "inputs": [],
      "name": "passengers",
      "outputs": [
        {
          "internalType": "string",
          "name": "",
          "type": "string"
        }
      ],
      "stateMutability": "view",
      "type": "function",
      "constant": true
    },
    {
      "inputs": [],
      "name": "ratings",
      "outputs": [
        {
          "internalType": "string",
          "name": "",
          "type": "string"
        }
      ],
      "stateMutability": "view",
      "type": "function",
      "constant": true
    },
    {
      "inputs": [],
      "name": "ride",
      "outputs": [
        {
          "internalType": "string",
          "name": "",
          "type": "string"
        }
      ],
      "stateMutability": "view",
      "type": "function",
      "constant": true
    },
    {
      "inputs": [],
      "name": "users",
      "outputs": [
        {
          "internalType": "string",
          "name": "",
          "type": "string"
        }
      ],
      "stateMutability": "view",
      "type": "function",
      "constant": true
    },
    {
      "inputs": [
        {
          "internalType": "string",
          "name": "us",
          "type": "string"
        }
      ],
      "name": "addUser",
      "outputs": [],
      "stateMutability": "nonpayable",
      "type": "function"
    },
    {
      "inputs": [],
      "name": "getUser",
      "outputs": [
        {
          "internalType": "string",
          "name": "",
          "type": "string"
        }
      ],
      "stateMutability": "view",
      "type": "function",
      "constant": true
    },
    {
      "inputs": [
        {
          "internalType": "string",
          "name": "r",
          "type": "string"
        }
      ],
      "name": "setRide",
      "outputs": [],
      "stateMutability": "nonpayable",
      "type": "function"
    },
    {
      "inputs": [],
      "name": "getRide",
      "outputs": [
        {
          "internalType": "string",
          "name": "",
          "type": "string"
        }
      ],
      "stateMutability": "view",
      "type": "function",
      "constant": true
    },
    {
      "inputs": [
        {
          "internalType": "string",
          "name": "p",
          "type": "string"
        }
      ],
      "name": "setPassengers",
      "outputs": [],
      "stateMutability": "nonpayable",
      "type": "function"
    },
    {
      "inputs": [],
      "name": "getPassengers",
      "outputs": [
        {
          "internalType": "string",
          "name": "",
          "type": "string"
        }
      ],
      "stateMutability": "view",
      "type": "function",
      "constant": true
    },
    {
      "inputs": [
        {
          "internalType": "string",
          "name": "r",
          "type": "string"
        }
      ],
      "name": "setRatings",
      "outputs": [],
      "stateMutability": "nonpayable",
      "type": "function"
    },
    {
      "inputs": [],
      "name": "getRatings",
      "outputs": [
        {
          "internalType": "string",
          "name": "",
          "type": "string"
        }
      ],
      "stateMutability": "view",
      "type": "function",
      "constant": true
    }
  ],
  "bytecode": "0x608060405234801561001057600080fd5b5060408051602081019182905260009081905261002d9181610090565b5060408051602081019182905260009081905261004c91600191610090565b5060408051602081019182905260009081905261006b91600291610090565b5060408051602081019182905260009081905261008a91600391610090565b5061017d565b82805461009c90610129565b90600052602060002090601f0160209004810192826100be5760008555610104565b82601f106100d757805160ff1916838001178555610104565b82800160010185558215610104579182015b828111156101045782518255916020019190600101906100e9565b50610110929150610114565b5090565b5b808211156101105760008155600101610115565b60028104600182168061013d57607f821691505b60208210811415610177577f4e487b7100000000000000000000000000000000000000000000000000000000600052602260045260246000fd5b50919050565b6105968061018c6000396000f3fe608060405234801561001057600080fd5b50600436106100d1576000357c01000000000000000000000000000000000000000000000000000000009004806387d54f241161008e57806387d54f24146101345780638cbdd6bd1461014757806398db83a41461014f578063d8e6ef2b14610157578063e9b893f11461015f578063f20202751461017257600080fd5b80630e44e0bf146100d657806318b8275a146100f457806336a9fc12146101095780633899cedd146101115780636ac23fdc14610124578063832880e71461012c575b600080fd5b6100de61017a565b6040516100eb91906103d7565b60405180910390f35b61010761010236600461045b565b610208565b005b6100de61021f565b61010761011f36600461045b565b61022c565b6100de61023f565b6100de6102d1565b61010761014236600461045b565b6102e0565b6100de6102f3565b6100de610302565b6100de610311565b61010761016d36600461045b565b61031e565b6100de610331565b600180546101879061050c565b80601f01602080910402602001604051908101604052809291908181526020018280546101b39061050c565b80156102005780601f106101d557610100808354040283529160200191610200565b820191906000526020600020905b8154815290600101906020018083116101e357829003601f168201915b505050505081565b805161021b90600090602084019061033e565b5050565b600380546101879061050c565b805161021b90600390602084019061033e565b60606002805461024e9061050c565b80601f016020809104026020016040519081016040528092919081815260200182805461027a9061050c565b80156102c75780601f1061029c576101008083540402835291602001916102c7565b820191906000526020600020905b8154815290600101906020018083116102aa57829003601f168201915b5050505050905090565b60606000805461024e9061050c565b805161021b90600290602084019061033e565b60606003805461024e9061050c565b60606001805461024e9061050c565b600280546101879061050c565b805161021b90600190602084019061033e565b600080546101879061050c565b82805461034a9061050c565b90600052602060002090601f01602090048101928261036c57600085556103b2565b82601f1061038557805160ff19168380011785556103b2565b828001600101855582156103b2579182015b828111156103b2578251825591602001919060010190610397565b506103be9291506103c2565b5090565b5b808211156103be57600081556001016103c3565b600060208083528351808285015260005b81811015610404578581018301518582016040015282016103e8565b81811115610416576000604083870101525b50601f01601f1916929092016040019392505050565b7f4e487b7100000000000000000000000000000000000000000000000000000000600052604160045260246000fd5b60006020828403121561046d57600080fd5b813567ffffffffffffffff8082111561048557600080fd5b818401915084601f83011261049957600080fd5b8135818111156104ab576104ab61042c565b604051601f8201601f19908116603f011681019083821181831017156104d3576104d361042c565b816040528281528760208487010111156104ec57600080fd5b826020860160208301376000928101602001929092525095945050505050565b60028104600182168061052057607f821691505b6020821081141561055a577f4e487b7100000000000000000000000000000000000000000000000000000000600052602260045260246000fd5b5091905056fea26469706673582212204c6b68be6184f0d5df96a8a5c701bd7258d35fd1113c32da8eafae2ea5da0c1f64736f6c634300080b0033",
  "immutableReferences": {},
  "source": "pragma solidity >= 0.8.11 <= 0.8.11;\r\n//carpool solidity code which contains functions to save and get data\r\ncontract Carpool {\r\n    string public users;\r\n    string public ride;\r\n    string public passengers;\r\n    string public ratings;\r\n       \r\n    //add user details to Blockchain memory\t\r\n    function addUser(string memory us) public {\r\n       users = us;\t\r\n    }\r\n   //get user details\r\n    function getUser() public view returns (string memory) {\r\n        return users;\r\n    }\r\n    //add ride details to Blockchain memory\r\n    function setRide(string memory r) public {\r\n       ride = r;\t\r\n    }\r\n\r\n    function getRide() public view returns (string memory) {\r\n        return ride;\r\n    }\r\n\r\n    //add passengers details to Blockchain memory\r\n    function setPassengers(string memory p) public {\r\n       passengers = p;\t\r\n    }\r\n\r\n    function getPassengers() public view returns (string memory) {\r\n        return passengers;\r\n    }\r\n\r\n    //add passengers details to Blockchain memory\r\n    function setRatings(string memory r) public {\r\n       ratings = r;\t\r\n    }\r\n\r\n    function getRatings() public view returns (string memory) {\r\n        return ratings;\r\n    }\r\n\r\n    constructor() public {\r\n        users = \"\";\r\n\tride =\"\";\r\n\tpassengers = \"\";\r\n\tratings = \"\";\r\n    }\r\n}",
  "sourcePath": "C:\\Users\\Admin\\Desktop\\Blockchain\\hello-eth\\node_modules\\.bin\\contracts\\Carpool.sol",
  "compiler": {
    "name": "solc",
    "version": "0.8.11+commit.d7f03943.Emscripten.clang"
  },
  "schemaVersion": "3.4.4",
  "updatedAt": "2024-05-16T04:38:08.588Z",
  "networkType": "ethereum",
  "devdoc": {
    "kind": "dev",
    "methods": {},
    "version": 1
  },
  "userdoc": {
    "kind": "user",
    "methods": {},
    "version": 1
  }
}